{
  "_format": "hh-sol-artifact-1",
  "contractName": "Token",
  "sourceName": "contracts/Token.sol",
  "abi": [
    {
      "inputs": [
        {
          "internalType": "uint256",
          "name": "_totalSupply",
          "type": "uint256"
        }
      ],
      "stateMutability": "nonpayable",
      "type": "constructor"
    },
    {
      "inputs": [
        {
          "internalType": "address",
          "name": "_address",
          "type": "address"
        }
      ],
      "name": "balanceOf",
      "outputs": [
        {
          "internalType": "uint256",
          "name": "result",
          "type": "uint256"
        }
      ],
      "stateMutability": "view",
      "type": "function"
    },
    {
      "inputs": [],
      "name": "getTotalSupply",
      "outputs": [
        {
          "internalType": "uint256",
          "name": "_totalSupply",
          "type": "uint256"
        }
      ],
      "stateMutability": "view",
      "type": "function"
    },
    {
      "inputs": [],
      "name": "name",
      "outputs": [
        {
          "internalType": "string",
          "name": "",
          "type": "string"
        }
      ],
      "stateMutability": "view",
      "type": "function"
    },
    {
      "inputs": [
        {
          "internalType": "uint256",
          "name": "_amount",
          "type": "uint256"
        },
        {
          "internalType": "address",
          "name": "_to",
          "type": "address"
        }
      ],
      "name": "transfer",
      "outputs": [],
      "stateMutability": "nonpayable",
      "type": "function"
    }
  ],
  "bytecode": "0x60806040523480156200001157600080fd5b5060405162000aa338038062000aa383398181016040528101906200003791906200023f565b6200006760405180606001604052806032815260200162000a7160329139826200013060201b620002971760201c565b336000806101000a81548173ffffffffffffffffffffffffffffffffffffffff021916908373ffffffffffffffffffffffffffffffffffffffff16021790555080600181905550600154600260008060009054906101000a900473ffffffffffffffffffffffffffffffffffffffff1673ffffffffffffffffffffffffffffffffffffffff1673ffffffffffffffffffffffffffffffffffffffff1681526020019081526020016000206000828254620001229190620002a0565b9250508190555050620003ba565b620001d282826040516024016200014992919062000386565b6040516020818303038152906040527fb60e72cc000000000000000000000000000000000000000000000000000000007bffffffffffffffffffffffffffffffffffffffffffffffffffffffff19166020820180517bffffffffffffffffffffffffffffffffffffffffffffffffffffffff8381831617835250505050620001d660201b60201c565b5050565b60008151905060006a636f6e736f6c652e6c6f679050602083016000808483855afa5050505050565b600080fd5b6000819050919050565b620002198162000204565b81146200022557600080fd5b50565b60008151905062000239816200020e565b92915050565b600060208284031215620002585762000257620001ff565b5b6000620002688482850162000228565b91505092915050565b7f4e487b7100000000000000000000000000000000000000000000000000000000600052601160045260246000fd5b6000620002ad8262000204565b9150620002ba8362000204565b9250828201905080821115620002d557620002d462000271565b5b92915050565b600081519050919050565b600082825260208201905092915050565b60005b8381101562000317578082015181840152602081019050620002fa565b60008484015250505050565b6000601f19601f8301169050919050565b60006200034182620002db565b6200034d8185620002e6565b93506200035f818560208601620002f7565b6200036a8162000323565b840191505092915050565b620003808162000204565b82525050565b60006040820190508181036000830152620003a2818562000334565b9050620003b3602083018462000375565b9392505050565b6106a780620003ca6000396000f3fe608060405234801561001057600080fd5b506004361061004c5760003560e01c806306fdde031461005157806370a082311461006f578063b7760c8f1461009f578063c4e41b22146100bb575b600080fd5b6100596100d9565b60405161006691906103ec565b60405180910390f35b61008960048036038101906100849190610471565b610112565b60405161009691906104b7565b60405180910390f35b6100b960048036038101906100b491906104fe565b61015b565b005b6100c361028d565b6040516100d091906104b7565b60405180910390f35b6040518060400160405280600781526020017f4d79546f6b656e0000000000000000000000000000000000000000000000000081525081565b6000600260008373ffffffffffffffffffffffffffffffffffffffff1673ffffffffffffffffffffffffffffffffffffffff168152602001908152602001600020549050919050565b81600260003373ffffffffffffffffffffffffffffffffffffffff1673ffffffffffffffffffffffffffffffffffffffff1681526020019081526020016000205410156101dd576040517f08c379a00000000000000000000000000000000000000000000000000000000081526004016101d49061058a565b60405180910390fd5b81600260003373ffffffffffffffffffffffffffffffffffffffff1673ffffffffffffffffffffffffffffffffffffffff168152602001908152602001600020600082825461022c91906105d9565b9250508190555081600260008373ffffffffffffffffffffffffffffffffffffffff1673ffffffffffffffffffffffffffffffffffffffff1681526020019081526020016000206000828254610282919061060d565b925050819055505050565b6000600154905090565b61032f82826040516024016102ad929190610641565b6040516020818303038152906040527fb60e72cc000000000000000000000000000000000000000000000000000000007bffffffffffffffffffffffffffffffffffffffffffffffffffffffff19166020820180517bffffffffffffffffffffffffffffffffffffffffffffffffffffffff8381831617835250505050610333565b5050565b60008151905060006a636f6e736f6c652e6c6f679050602083016000808483855afa5050505050565b600081519050919050565b600082825260208201905092915050565b60005b8381101561039657808201518184015260208101905061037b565b60008484015250505050565b6000601f19601f8301169050919050565b60006103be8261035c565b6103c88185610367565b93506103d8818560208601610378565b6103e1816103a2565b840191505092915050565b6000602082019050818103600083015261040681846103b3565b905092915050565b600080fd5b600073ffffffffffffffffffffffffffffffffffffffff82169050919050565b600061043e82610413565b9050919050565b61044e81610433565b811461045957600080fd5b50565b60008135905061046b81610445565b92915050565b6000602082840312156104875761048661040e565b5b60006104958482850161045c565b91505092915050565b6000819050919050565b6104b18161049e565b82525050565b60006020820190506104cc60008301846104a8565b92915050565b6104db8161049e565b81146104e657600080fd5b50565b6000813590506104f8816104d2565b92915050565b600080604083850312156105155761051461040e565b5b6000610523858286016104e9565b92505060206105348582860161045c565b9150509250929050565b7f4e6f7420656e6f7567682066756e647300000000000000000000000000000000600082015250565b6000610574601083610367565b915061057f8261053e565b602082019050919050565b600060208201905081810360008301526105a381610567565b9050919050565b7f4e487b7100000000000000000000000000000000000000000000000000000000600052601160045260246000fd5b60006105e48261049e565b91506105ef8361049e565b9250828203905081811115610607576106066105aa565b5b92915050565b60006106188261049e565b91506106238361049e565b925082820190508082111561063b5761063a6105aa565b5b92915050565b6000604082019050818103600083015261065b81856103b3565b905061066a60208301846104a8565b939250505056fea264697066735822122037f231f5f668c6ba69f4b4d773798b588e1734a762967ee267c24e9542390ce864736f6c634300081200334465706c6f79696e672074686520636f6e7472616374212c2077697468206120746f74616c537570706c79206f66202d2d3e",
  "linkReferences": {},
  "deployedLinkReferences": {}
}